:020000040800F2
:1000000000000120C5020008CB020008CF02000852
:1000100041030008450300088D03000800000000AC
:10002000000000000000000000000000D5030008F0
:10003000D903000800000000DD0300084D1F000880
:10004000F1030008F1030008F1030008F1030008C0
:10005000F1030008F1030008B5160008D1160008E6
:10006000F1030008F1030008F1030008F1030008A0
:10007000F1030008F1030008F1030008F103000890
:10008000F1030008F1030008F1030008000000007C
:10009000000000000000000000000000F103000864
:1000A000F1030008F1030008F1030008F103000860
:1000B000F1030008F1030008F1030008F103000850
:1000C000F1030008F1030008F1030008F103000840
:1000D000F1030008F1030008F1030008000000002C
:1000E000F1030008F1030008F1030008000000001C
:1000F000000000000000000000000000F103000804
:1001000000000000F1030008F1030008F1030008FB
:1001100000000000000000000000000000000000DF
:10012000F1030008F1030008F1030008F1030008DF
:10013000F1030008000000000000000000000000C3
:10014000000000000000000000000000F1030008B3
:10015000F1030008F1030008F1030008F1030008AF
:10016000F1030008F1030008000000000000000097
:10017000000000000000000000000000000000007F
:1001800000000000F1030008000000000000000073
:10019000F103000800B583B000F040FE384B394A47
:1001A0001360394A1360394900E02146384B9942BF
:1001B0000BD20A684B6801F10C0488689842F4D9A4
:1001C0001168196004330432F8E72E4B1A68314B7A
:1001D0009A4200D0FEE72C4B1A682F4B9A42F9D175
:1001E000274B2E4A13602E4A13602E4B05E0002049
:1001F000106004329342FAD80B462B4A934204D241
:10020000194651F8082B5B68F4E7244B1B6813B9B7
:10021000234B1B6803B1FEE701F0F6FE694601A817
:1002200000F08EFD214C224BE41AA4100025AC42B4
:1002300014DC204C204BE41AA4100025AC4213DC43
:100240000099019801F022FF05461C4C1C4BE41A52
:10025000A410002C0EDC284600F044FD144B53F88B
:10026000253098470135E2E7134B53F8253098477E
:100270000135E3E7013C124B53F824309847E8E797
:10028000BABADECA00000020B84B0020F403000810
:100290000C0400087856341232547698BC4B002077
:1002A000AC4D00200C0400081C0400081C040008CD
:1002B0001C0400081C0400081C0400081C0400089E
:1002C0001C04000808B5FFF765FF00BEFEE71EF03E
:1002D000040F0CBFEFF30880EFF309807146414A29
:1002E00010472DE9F04182B004468846124B5E6B00
:1002F0009F6B9D6A1B6B13F0020F03D00E4BDB6AE2
:10030000002B0CDB0D4800F02DFDCDF800803B46A6
:1003100032462946204600F08DFD00BEFEE74BF632
:10032000AB6100F001FE0028ECD0034B4FF000421F
:10033000DA6202B0BDE8F08100ED00E0C82D0008EF
:1003400000BEFEE71EF0040F0CBFEFF30880EFF3D2
:1003500009807146244A10472DE9F04182B00446D5
:100360008846084B5E6B9F6B9D6A074800F0FAFC5D
:10037000CDF800803B4632462946204600F05AFD23
:1003800000BEFEE700ED00E0D82D00081EF0040FCF
:100390000CBFEFF30880EFF309807146134A104752
:1003A0002DE9F04182B004468846084B5E6B9F6B96
:1003B0009D6A074800F0D6FCCDF800803B463246E7
:1003C0002946204600F036FD00BEFEE700ED00E0C5
:1003D000E42D000800BEFEE700BEFEE700BEFEE71B
:1003E00070470000E302000859030008A103000859
:0403F00000BEFEE766
:1003F400B050030800000020BC4B0020B05003089C
:100404000000001000000010BC4B0020B04D002084
:080414000000001000000010C0
:1004200010B50446074B1868074BA3FB0030800942
:1004300000F090F8002221464FF0FF3000F044F821
:10044000002010BD0C000020D34D621008B50B4BEE
:100450001A6842F400721A601A6842F480621A60E4
:100460001A6842F480721A60032000F00FF80F201F
:10047000FFF7D6FF01F022FF002008BD003C02403C
:10048000014B1868704700BF6C4D002010B5044642
:10049000C31E042B0FD80A4AD36823F4E0631B045D
:1004A0001B0C240204F4E064234343F0BF6343F4D1
:1004B0000033D36010BDA421024800F049FCEAE7F4
:1004C00000ED00E0F82B000870B505460C46164616
:1004D0000F2A25D80F2C28D81B4BDB68C3F3022327
:1004E000C3F10702042A28BF0422191D062921D9B5
:1004F000033B4FF0FF3101FA02F224EA02049C4070
:1005000001FA03F326EA03063443002D14DB240129
:10051000E4B205F1604505F5614585F8004370BD1D
:10052000BC210A4800F014FCD4E7BD21074800F0C4
:100530000FFCD1E70023DCE705F00F052401E4B24E
:10054000034B5C55EBE700BF00ED00E0F82B000823
:1005500014ED00E00138B0F1807F0AD2064B5860FC
:10056000064AF02182F823100020986007221A60C2
:1005700070470120704700BF10E000E000ED00E090
:1005800010B50446042800D038B9042C0BD0094A11
:10059000136823F00403136010BD40F2B311064842
:1005A00000F0D6FBF1E7034A136843F0040313603D
:1005B000F2E700BF10E000E0F82B000830B583B090
:1005C000044603680F2B29D8236813F0010F3DD090
:1005D0006368012B01D9052B25D1A34B9B6803F040
:1005E0000C03042B29D0A04B9B6803F00C03082BB1
:1005F0001ED022799D4B1A706368002B50D0FFF7F4
:100600003FFF0546984B1B6813F4003F1ED1FFF7D0
:1006100037FF401B6428F5D90320E3E1F521944816
:1006200000F096FBD0E7FA21914800F091FBD4E767
:100630008D4B5B6813F4800FDBD08B4B1B6813F47E
:10064000003F03D06368002B00F0C981236813F0DA
:10065000020F5DD0E368012B31D823691F2B34D8FA
:10066000814B9B6813F00C0F3AD07F4B9B6803F0D3
:100670000C03082B2FD0E368002B74D07D4B012294
:100680001A60FFF7FDFE0546774B1B6813F0020F5B
:100690005AD1FFF7F5FE401B0228F5D90320A1E14E
:1006A000FFF7EEFE0546704B1B6813F4003FCDD0FC
:1006B000FFF7E6FE401B6428F5D9032092E14FF4D2
:1006C00096716B4800F044FBC7E740F22D11684873
:1006D00000F03EFBC4E7644B5B6813F4800FCAD1A3
:1006E000614B1B6813F0020F04D0E368012B01D0AB
:1006F000012077E15C48036823F0F8032169F822C0
:1007000092FAA2F2B2FA82F201FA02F21343036001
:10071000236813F0080F50D06369012B35D8636943
:10072000002B38D0544B01221A60FFF7A9FE054672
:100730004D4B5B6F13F0020F3FD1FFF7A1FE401B43
:100740000228F5D903204DE14748036823F0F80358
:100750002169F82292FAA2F2B2FA82F201FA02F2C6
:1007600013430360D4E7434B00221A60FFF788FE6F
:1007700005463D4B1B6813F0020FC9D0FFF780FE02
:10078000401B0228F5D903202CE140F26D113848B6
:1007900000F0DEFAC3E7384B00221A60FFF770FE64
:1007A0000546314B5B6F13F0020F06D0FFF768FE72
:1007B000401B0228F5D9032014E1236813F0040F2D
:1007C00060D0A368012B01D9052B1FD10023019311
:1007D000254B1A6C42F080521A641B6C03F0805354
:1007E0000193019B254A136843F480731360FFF75C
:1007F00047FE0546214B1B6813F4807F0CD1FFF7A1
:100800003FFE401B0228F5D90320EBE040F2971190
:10081000174800F09DFAD9E7227A194B1A70A3689D
:1008200083B1FFF72DFE05460F4B1B6F13F0020F30
:1008300028D1FFF725FE401B41F288339842F3D9B7
:100840000320CFE0FFF71CFE0546074B1B6F13F09C
:10085000020F17D0FFF714FE401B41F28833984275
:10086000F3D90320BEE000BF003802400238024046
:100870003C2C000800004742800E474200700040B8
:1008800070380240A369022B39D8A369002B00F00D
:10089000A880564A926802F00C02082A00F0A48050
:1008A000022B40F08880E36913B1B3F5800F2CD19F
:1008B000236A3F2B2FD8636A323BB3F5BF7F30D812
:1008C000A36A022B05D0042B03D0062B01D0082BE2
:1008D0002DD1E36A043B0B2B2FD8454B00221A6025
:1008E000FFF7CEFD0546414B1B6813F0007F2AD071
:1008F000FFF7C6FD401B0228F5D9032072E04FF434
:10090000E6713C4800F024FABFE740F2D5113948BF
:1009100000F01EFACCE74FF4EB71364800F018FAFD
:10092000C9E740F2D711334800F012FAC8E74FF494
:10093000EC71304800F00CFACBE740F2D9112D48A9
:1009400000F006FAC9E7E369226A1343616A47F6D1
:10095000C07292FAA2F2B2FA82F201FA02F21343E0
:10096000A26A5208013A4FF4403191FAA1F1B1FA6A
:1009700081F18A401343E16A4FF0706292FAA2F269
:10098000B2FA82F201FA02F21343184A5360184B8A
:1009900001221A60FFF774FD0446144B1B6813F024
:1009A000007F06D1FFF76CFD001B0228F5D903205C
:1009B00018E0002016E00E4B00221A60FFF760FDE1
:1009C00004460A4B1B6813F0007F06D0FFF758FD62
:1009D000001B0228F5D9032004E0002002E00120DA
:1009E00000E0002003B030BD0120FBE700380240EA
:1009F000600047423C2C00081F4B9B6803F00C032F
:100A0000082B36D11C4B586800F03F005B6813F48C
:100A1000800F1ED0194AB2FBF0F2174B586847F608
:100A2000C073184093FAA3F3B3FA83F3D84000FBE2
:100A300002F0114B5B6803F440334FF4403292FAFA
:100A4000A2F2B2FA82F2D34001335B00B0FBF3F0C2
:100A500070470A4AB2FBF0F2074B586847F6C0737A
:100A6000184093FAA3F3B3FA83F3D84000FB02F0E3
:100A7000DFE70248704700BF003802400024F4005E
:100A800070B504460D460368013B0E2B11D8072DA7
:100A900015D88C4B1B6803F00F03AB4215D2EBB299
:100AA000884A1370136803F00F03AB420DD0012086
:100AB00070BD40F23721844800F04AF9E7E74FF46F
:100AC0000E71814800F044F9E3E7236813F0020F48
:100AD00018D0A3687BB1802B0DD0902B0BD0A02B0E
:100AE00009D0B02B07D0C02B05D0D02B03D0E02BE2
:100AF00001D0F02B37D1754A936823F0F003A16839
:100B00000B439360236813F0010F73D06368032BCA
:100B10002FD86368012B32D09A1E012A36D96B4A2E
:100B2000126812F0020F00F0CA8068498A6822F049
:100B3000030213438B60FFF7A3FC06466368012B97
:100B40002BD0022B38D0032B45D0604B9B6813F081
:100B50000C0F4FD0FFF794FC801B41F28833984272
:100B6000F3D90320A4E740F24F21574800F0F0F8F2
:100B7000C1E740F25621544800F0EAF8C9E7534A69
:100B8000126812F4003FD0D1012091E74F4A126859
:100B900012F0007FC9D101208AE74C4B9B6803F01B
:100BA0000C03042B26D0FFF76BFC801B41F288332B
:100BB0009842F2D903207BE7444B9B6803F00C0377
:100BC000082B17D0FFF75CFC801B41F2883398425A
:100BD000F2D903206CE73D4B9B6803F00C030C2B10
:100BE00008D0FFF74DFC801B41F288339842F2D9C0
:100BF00003205DE7334B1B6803F00F03AB4209D9B9
:100C0000EAB2304B1A701B6803F00F03AB4201D0FD
:100C100001204DE7236813F0040F14D0E3685BB1A3
:100C2000B3F5805F08D0B3F5A05F05D0B3F5C05F22
:100C300002D0B3F5E05F36D1244A936823F4E05341
:100C4000E1680B439360236813F0080F15D0236904
:100C50005BB1B3F5805F08D0B3F5A05F05D0B3F505
:100C6000C05F02D0B3F5E05F23D1184A936823F444
:100C70006043216943EAC1039360FFF7BDFE134B54
:100C80009B6803F0F003F02292FAA2F2B2FA82F229
:100C9000D3400F4AD35CD8400E4B18600F20FFF7AB
:100CA000BFFB002004E74FF42D71074800F050F817
:100CB000C2E740F2BB21044800F04AF8D5E7012022
:100CC000F6E600BF003C02403C2C00080038024021
:100CD0002C2C00080C000020014B1868704700BF46
:100CE0000C000020FEE7000008B5034800F052F8B1
:100CF0000120FFF7F7FF00BF6C2C000808B5034682
:100D00000C4A12685AB10B4A1068033323F00303EC
:100D10000344094A934206D8064A136008BD054AAF
:100D200006491160EFE701F0CBFA0C2303604FF0A6
:100D3000FF30F3E7C04B002000FC0020B04D002046
:100D400001230360014B0B60704700BF04000020CB
:100D500008B50A460146024800F004F8FFF7C4FF50
:100D6000802C00080FB400B583B004AB53F8042BFB
:100D700001938021064801F0FDFA002803DD0146B9
:100D8000034800F047F803B05DF804EB04B0704787
:100D9000C84B002010B5044601F0B8FA01462046C1
:100DA00000F038F80121024800F034F810BD00BF0F
:100DB000442D00082DE9F04385B004460F46435604
:100DC0000BB10E461EE0042528462146ABBE044664
:100DD000384605B0BDE8F08314F9011B04AA1A4493
:100DE00002F8101C0133AB42F6D304AA13440022CC
:100DF00003F8102C4FF00408E94640464946ABBEC4
:100E00008046761B002EE3D03546102E28BF1025D5
:100E10000023E8E708B5FFF7CDFF08BD08B500F0EF
:100E200093F8024A024B9A6008BD00BF0000000818
:100E300000ED00E0F8B504460D4617461E4627486B
:100E4000FFF790FF21682648FFF78CFF616825486F
:100E5000FFF788FFA1682448FFF784FFE168234873
:100E6000FFF780FF21692248FFF77CFF6169214875
:100E7000FFF778FFA1692048FFF774FFE1691F4879
:100E8000FFF770FF1E48FFF76DFF29461D48FFF76B
:100E900069FF1D4CE16A1D48FFF764FF216B1C4888
:100EA000FFF760FFE16B1B48FFF75CFF15F0800F59
:100EB0000AD115F4004F0CD11748FFF753FF0699DC
:100EC0001648FFF74FFFF8BD39461548FFF74AFFB0
:100ED000EFE731461348FFF745FFEDE7AC2C00087C
:100EE000BC2C0008CC2C0008DC2C0008EC2C0008E2
:100EF000FC2C00080C2D00081C2D00082C2D0008CF
:100F00003C2D0008482D000800ED00E0582D000899
:100F1000682D0008782D0008A82D0008B02D0008C5
:100F2000882D0008982D000883691A888A4201D00C
:100F3000002070470268033A012A03D80233836114
:100F400001207047002070470C4B1A6842F00102E4
:100F50001A60002199601A6822F0847222F48032AB
:100F60001A60074A5A601A6822F480221A60D9600F
:100F7000044B4FF000629A60704700BF0038024097
:100F80001030002400ED00E0224B9B6803F00C03BE
:100F9000042B14D0082B16D01BB11F4B1F4A1A600C
:100FA00002E01D4B1D4A1A601A4B9B68C3F30313E2
:100FB0001B4AD15C184A1368CB4013607047164B2C
:100FC000164A1A60F0E7134B5A685B6803F03F0358
:100FD00012F4800F13D0114AB2FBF3F20D4B5B6891
:100FE000C3F3881303FB02F30A4A5268C2F30142B7
:100FF00001325200B3FBF2F3074A1360D4E7074A09
:10100000B2FBF3F2034B5B68C3F3881303FB02F3F9
:10101000EAE700BF003802400C0000200024F40082
:10102000F42D00080C4B1B78043B032B12D8DFE88F
:1010300003F002060A0E094B04221A707047074B90
:1010400005221A707047054B06221A707047034B31
:1010500007221A70704700BF484C0020144D002032
:1010600010B51F4B00221A701E4B1A6844F61F63FE
:101070009A422DD91B4B1A684CF250339A4227D80A
:10108000002309E0012202FA01F11548027822EA60
:10109000010202700133DBB2072B17D8194603F1A6
:1010A0001100104A52F8204040F6D8629442E9D923
:1010B0000C4A52F82020B2F5FA5FE3D801229A4098
:1010C000074801781143C9B20170E3E7FFF7AAFFAF
:1010D0000023054A1370034A1360044A137010BDBD
:1010E000484C00204C4C0020154D0020494C00205D
:1010F00038B50E4B1B7883B10D4C2578EDB200F05E
:101100000FFF0C4B43F825000B490C4800F010FF73
:1011100023780133DBB2237038BD0749074800F05C
:1011200007FF024B01221A70F6E700BF154D0020A1
:10113000494C00204C4C00206110000840420F0038
:1011400038B500240CE0104D0022295D104600F057
:10115000CDFA0122295D002000F072FB0134E4B2D7
:10116000032CF0D900240CE0084D0122295D104623
:1011700000F0BCFA0122295D104600F0C7FB0134E3
:10118000E4B2032CF0D938BD140000201000002078
:10119000F8B500251AE01A4B995D002000F096FB87
:1011A0000028F8D00122174BD95D104600F0AEFBA5
:1011B00007EB8606144B13F816001FE00122114BB3
:1011C000D95D104600F0A2FB0135EDB2032D14D815
:1011D0002F4600220B4B595D012000F097FB0024A5
:1011E000032CEBD82646064B195D002000F06EFB61
:1011F0000028D0D00134E4B2F2E70020F8BD00BFEF
:1012000014000020100000201800002008B5012262
:101210000021104600F06AFA01221146104600F043
:1012200065FA01220521104600F060FA012206212C
:10123000104600F05BFA01220721104600F056FA32
:1012400001220821104600F051FA0122092110461E
:1012500000F04CFA01220A21104600F047FA01235F
:1012600000221146184600F087FA01230022194691
:10127000184600F081FA012300220521184600F0EB
:101280007BFA012300220621184600F075FA01239B
:1012900000220721184600F06FFA012300220821DE
:1012A000184600F069FA012300220921184600F0CF
:1012B00063FA012300220A21184600F05DFA08BDF6
:1012C00070B505460E46002434E02A5D02F00102A6
:1012D0000021012000F01AFB2A5DC2F34002012127
:1012E000084600F013FB2A5DC2F3401205210120DD
:1012F00000F00CFB2A5DC2F380120621012000F0F1
:1013000005FB2A5DD2090721012000F0FFFA002227
:101310000821012000F0FAFA00220921012000F042
:10132000F5FA00220A21012000F0F0FA7D2000F0F9
:10133000D9FD0134B442C8D370BD08B501220321E0
:10134000002000F0D3F901220221002000F0CEF9A4
:1013500001220421002000F0C9F908BD38B5054676
:101360000F2419E045FA04F202F0010203210020E3
:1013700000F0CCFA01220221002000F0C7FA01207F
:1013800000F0B0FD00220221104600F0BFFA01205B
:1013900000F0A8FD013C24B2002CE3DA0122042174
:1013A000002000F0B3FA012000F09CFD002204218F
:1013B000104600F0ABFA012000F094FD38BD08B5EE
:1013C00001220F21022000F0A1FA642000F08AFD22
:1013D00000220F21022000F099FA032000F082FD84
:1013E00001220F21022000F091FA642000F07AFD22
:1013F00000220F21022000F089FA642000F072FD23
:1014000001220F21022000F081FA782000F077FD00
:1014100008BD10B5044601221146002000F076FAFE
:10142000204600F023FD10BD10B504460022012126
:10143000104600F06BFA204600F018FD10BD08B50C
:10144000FFF7BDFF1120FFF7EFFF962000F057FDDB
:101450003A20FFF7E9FF0520FFF7DBFF2920FFF720
:10146000E3FF08BD38B505462A20FFF7DDFF002061
:10147000FFF7CFFF0020FFF7CCFF0020FFF7C9FFE9
:101480007F20FFF7C6FF2B20FFF7CEFF0020FFF7DE
:10149000C0FF0020FFF7BDFF0020FFF7BAFF9F202D
:1014A000FFF7B7FF2C20FFF7BFFF00240EE035F851
:1014B00014006FEA1020C0B2FFF7ABFF15F814005C
:1014C000C043C0B2FFF7A5FF0134A4B2B4F5A04FEA
:1014D000EDD338BD2DE9F8438146884617461C46B2
:1014E000BDF820500E1A9B1A16FB03F6F6B22A20FE
:1014F000FFF79AFF0020FFF78CFF4846FFF789FFB0
:101500000020FFF786FF4046FFF783FF2B20FFF701
:101510008BFF0020FFF77DFF3846FFF77AFF0020A2
:10152000FFF777FF2046FFF774FF2C20FFF77CFFC3
:1015300000240BE06FEA1520C0B2FFF76AFFE8B2A3
:10154000C043C0B2FFF765FF0134A4B2B3B2A342F7
:10155000F0D8BDE8F88300002DE9F04F83B0BDF866
:1015600030B020283CD01D4691468846A0F1300A74
:101570005FFA8AFA00272AE0CDF800B04B464A46C7
:1015800041464046FFF7A6FF0134E4B206EB86026F
:1015900053009C4219DAB7FBF5F3134A02EBCA0277
:1015A000D35CB4FBF5F2134113F0010FE4D004EB6C
:1015B0000800C0B207EB0902D2B2411CCDF800B05E
:1015C0001346C9B2FFF786FFDEE70137FFB22E46AA
:1015D00005EB450305EB83039F4201DA0024D5E7C1
:1015E00003B0BDE8F08F00BF042E000830B48308BC
:1015F0000A4A023352F8234000F0030080000F250E
:10160000854024EA050442F8234052F823408140F3
:10161000214342F8231030BC704700BF003801401E
:1016200011B1012908D0704708490B68012202FA5C
:1016300000F018430860704704490B68012202FA61
:1016400000F023EA00000860704700BF003C014042
:10165000012903D071B1022918D07047114BD96804
:10166000012202FA00F00143D9609A6822EA0000E0
:10167000986070470B4B9968012202FA00F0014311
:101680009960DA6822EA0000D8607047054A9168DC
:10169000012303FA00F001439160D3681843D0603E
:1016A000704700BF003C0140014B1860704700BF0D
:1016B000184D002008B5044B1B689847034A53692E
:1016C00043F00103536108BD184D0020003C014068
:1016D00008B5044B5B689847034A536943F002031B
:1016E000536108BD184D0020003C0140034620B95D
:1016F000A1F10D00C0B202280DD9012B07D010B402
:10170000012B17D043B1022B22D010BC7047881E8A
:10171000C0B20228F3D87047144B1C68480003215C
:10172000814024EA010119601C6802FA00F121439A
:101730001960EAE70E4B1C6848000321814024EA47
:10174000010119601C6802FA00F121431960DCE70D
:10175000084B1868490003248C4020EA04001860F4
:10176000186802FA01F101431960CEE70000024057
:10177000000402400008024030B4044620B9A1F140
:101780000D00C0B2022806D9012C06D0012C21D0B0
:1017900044B1022C36D030BC7047881EC0B202283B
:1017A000F4D8F8E72348446801258D4024EA05046D
:1017B000446044688A4022434260826849000324AE
:1017C0008C4022EA04028260826803FA01F111432C
:1017D0008160E0E71848446801258D4024EA05044B
:1017E000446044688A40224342608268490003247E
:1017F0008C4022EA04028260826803FA01F11143FC
:101800008160C8E70D48446801258D4024EA05043D
:10181000446044688A40224342608268490003244D
:101820008C4022EA04028260826803FA01F11143CB
:101830008160B0E70000024000040240000802405E
:10184000034620B9A1F10D00C0B202280DD9012B29
:1018500007D010B4012B17D043B1022B22D010BCFB
:101860007047881EC0B20228F3D87047144BDC685A
:1018700048000321814024EA0101D960DC6802FAB2
:1018800000F12143D960EAE70E4BDC6848000321F0
:10189000814024EA0101D960DC6802FA00F12143A9
:1018A000D960DCE7084BD868490003248C4020EA63
:1018B0000400D860D86802FA01F10143D960CEE78C
:1018C00000000240000402400008024001280AD043
:1018D00018B102280DD000207047094B1869C84084
:1018E00000F001007047074B1869C84000F0010084
:1018F0007047054B1869C84000F00100704700BFF1
:10190000000002400004024000080240034620B9E3
:10191000A1F10D00C0B202280DD9012B07D010B4DF
:10192000012B16D043B1022B20D010BC7047881E6B
:10193000C0B20228F3D87047134B586901248C4079
:1019400020EA04005861586902FA01F10143596123
:10195000EBE70E4B586901248C4020EA04005861E3
:10196000586902FA01F101435961DEE7084B5869F1
:1019700001248C4020EA04005861586902FA01F100
:1019800001435961D1E700BF00000240000402405A
:1019900000080240034620B9A1F10D00C0B20228A0
:1019A0000FD9012B09D010B4072935D8012B17D036
:1019B00043B1022B22D010BC7047881EC0B202284F
:1019C000F1D87047314B186A89000F248C4020EA07
:1019D00004001862186A02FA01F101431962EAE789
:1019E0002B4B186A89000F248C4020EA04001862EF
:1019F000186A02FA01F101431962DCE7254B186A03
:101A000089000F248C4020EA04001862186A02FA48
:101A100001F101431962CEE7A1F10800C0B2072825
:101A2000C9D8012B22D08BB1022BC4D1194B586AD3
:101A300001F0070189000F248C4020EA040058625D
:101A4000586A02FA01F101435962B4E70F4B586A30
:101A500001F0070189000F248C4020EA040058623D
:101A6000586A02FA01F101435962A4E7084B586A27
:101A700001F0070189000F248C4020EA040058621D
:101A8000586A02FA01F10143596294E700000240EA
:101A9000000402400008024010B44409064951F80D
:101AA000243000F01F00012202FA00F0184341F830
:101AB000240010BC704700BF00E100E0044B187028
:101AC000000240F0BF6040F40030024B18607047E5
:101AD000584D00200CED00E01E4B1B78033B042BFF
:101AE00036D8DFE803F0030C17222D000A01D2B22A
:101AF00000F1604000F5614080F80023704712015A
:101B000042EA4112D2B200F1604000F5614080F833
:101B100000237047120142EA8112D2B200F1604004
:101B200000F5614080F800237047120142EAC112BB
:101B3000D2B200F1604000F5614080F800237047A8
:101B40001201D2B200F1604000F5614080F800233C
:101B5000704700BF584D00200B4B1A6822F48022BA
:101B60001A601A6842F480321A60074B1B6813F43B
:101B7000003FFAD0044B9A6822F003029A609A68F8
:101B800042F001029A60704700380240032822D8D0
:101B9000DFE800F0020A121A0F48036B012202FA72
:101BA00001F11943016370470B48436B012202FAAC
:101BB00001F11943416370470748036C012202FA9F
:101BC00001F11943016470470348436C012202FA92
:101BD00001F119434164704700380240064B1B680D
:101BE00003F07F3323F0FE43C3F305420270C3F3D7
:101BF000062242708370704700280040074B5B68E4
:101C000023F07F4323F0C0031A0C4280C3F3042265
:101C100042700370C3F342330371704700280040E1
:101C2000054A136F43F001031367034B1B6F13F057
:101C3000020FFAD0704700BF00380240024BCA22A0
:101C40005A6253225A6270470028004008B51C218E
:101C50000220FFF79BFF184A136843F48073136058
:101C6000FFF7DEFF154B1A6F42F480721A671A6F86
:101C700042F400421A67FFF7E1FF114AD36843F0CC
:101C80008003D3600E4BDB6813F0060FFAD00C4BC9
:101C90001A6942F4FE021A611A6942F0FF021A61DF
:101CA0009A6842F040029A60DA6822F08002DA60B4
:101CB000FF225A6208BD00BF007000400038024099
:101CC00000280040F8B50546FFF7B8FF224AD36860
:101CD00043F08003D360204BDB6813F0060FFAD08B
:101CE0002A781E4BA3FB0216F60806EB860041007D
:101CF000521AD2B26978A3FB0140C008C4B200EB0B
:101D000080004700C91BC9B2A878A3FB0053DB08B9
:101D1000DDB203EB83035F00C01BC0B2130443EAD0
:101D2000065303F47C13090241EA043404F4FE442C
:101D3000234340EA051202F07F021343064A136070
:101D4000936823F480239360D36823F08003D360E7
:101D5000FF235362F8BD00BF00280040CDCCCCCC9F
:101D6000054B9A6822F480229A60DA6822F0800299
:101D7000DA60FF225A62704700280040F8B5044636
:101D8000FFF75CFF234AD36843F08003D360214B05
:101D9000DB6813F0060FFAD06188A1F5FA6189B209
:101DA00061801D4AA2FB0130C008C5B200EB800073
:101DB0004300CB1ADBB26178A2FB0160C00800EBE4
:101DC00080077E00891BC9B226792778A2FB0742CB
:101DD000D208D4B202EB82024FEA420CA7EB0C020B
:101DE000D2B21B0443EA055303F47F037603B6B271
:101DF0003343090241EA003000F4F850034342EA59
:101E0000041202F03F021343024A5360FFF7A8FF97
:101E1000F8BD00BF00280040CDCCCCCC124B1A68D6
:101E200022F400621A601A6842F002021A601A680C
:101E300042F001021A601A6822F080021A601A68E1
:101E400022F038021A601A6842F004021A601A6816
:101E500042F400721A601A6842F480721A601A68BA
:101E600042F040021A60704700300140054BD860D4
:101E7000044B9B6813F0800FFAD1024BD86880B2F4
:101E8000704700BF00300140024A136823F004038A
:101E90001360704710E000E0044B586000229A6025
:101EA0001A6842F001021A60704700BF10E000E0BB
:101EB000024B1868C0F30040704700BF10E000E01C
:101EC00010B1012806D07047054A136843F0020399
:101ED00013607047024A136823F0020313607047CF
:101EE00010E000E010B504460120FFF7E9FF6000B4
:101EF000FFF7D2FFFFF7DCFF0028FBD010BD10B5C5
:101F000004460120FFF7DCFF4FF4FA6000FB04F009
:101F1000FFF7C2FFFFF7CCFF0028FBD010BD000089
:101F2000024B58689B68C01A704700BF10E000E081
:101F300008B5044B1960FFF7AFFF034B01221A707D
:101F400008BD00BF5C4D0020604D002008B5064B69
:101F50001B6823B19847054B1B78012B00D008BDA7
:101F6000014B00221A60FAE75C4D0020604D002012
:101F700070B594B000240194204B1A6C42F080524A
:101F80001A641B6C03F080530193019B02941C4B59
:101F90001A6842F440421A601B6803F440430293FB
:101FA000029B0123089309934FF480030F9310239E
:101FB00010934FF4A87311930426129607231393DA
:101FC00002250E9508A8FEF7F9FA0F23039304954E
:101FD00005944FF4805306930794294603A8FEF70F
:101FE0004FFDFEF779FE074BA3FB00308009FEF79B
:101FF000B1FA3046FEF7C4FA14B070BD00380240A2
:1020000000700040D34D621008B5FEF71FFAFFF7CD
:10201000AFFFFEF7B9FF08BD08B54FF47F40FFF7EB
:102020009DF91420FFF75EFF4FF61430FFF796F985
:102030001420FFF757FF48F22250FFF78FF91420C2
:10204000FFF750FF44F61C70FFF788F91420FFF7E4
:1020500049FF48F21C50FFF781F91420FFF742FFB7
:102060004FF61C30FFF77AF91420FFF73BFF4FF6CD
:102070001C70FFF773F91420FFF734FF4FF47F4013
:10208000FFF76CF91420FFF72DFF08BD2DE9F04193
:1020900082B0FFF761FD00210846FFF777FD0121BF
:1020A0000020FFF773FD02210020FFF76FFD0C21D8
:1020B0000320FFF76BFDFFF7E7FEFFF7C7FDFFF714
:1020C000ADFEFFF73DF8FFF7A1F8FFF736F96A48D4
:1020D000082303700225457000248470C470674E85
:1020E0000E233370032777704FF4FD63738004234E
:1020F0003371FFF7E7FD3046FFF740FE21462046EB
:10210000FFF774FA5E48FFF7CFFA21462046FFF743
:1021100087FA01212046FFF79BFA3846FFF7CEFCED
:10212000224621460620FFF7D7FC0620FFF7B4FC25
:1021300001220F212846FFF7D9FA012322460F2159
:102140002846FFF719FB012211462046FFF7CEFA79
:102150000123224619462046FFF70EFB2A46052199
:102160002046FFF7C3FA2A4607212046FFF7BEFAAA
:10217000052211462046FFF70DFC052207212046C7
:10218000FFF708FCFFF75BF93E48FFF76BF93E4BA2
:102190001B88482B37D0384D2846FFF71FFD374C9A
:1021A0002046FFF72BFD2A786B78A978374DDFF8AA
:1021B000088100912946404600F088F8227863782B
:1021C0006188334C00912946204600F07FF8314F5A
:1021D0003A78314E31784FF6FF75009503235FFA58
:1021E00088F0FFF7B9F93A78317800950323E0B227
:1021F000FFF7B2F9CBE7244B1B88532B13D0224BAC
:102200001B88432B34D0FFF707FFFEF7C1FF1E4C9E
:1022100020803220FFF773FE2388482BEBD11F4824
:10222000FFF720F9E7E71E48FFF71CF9FEF7B0FFBC
:102230001C4B18803220FFF762FE1A4B1B88002BC4
:10224000FBD0312B12D0532BD9D11548FFF70AF907
:10225000D5E71548FFF706F944F61A311348FFF79A
:102260002FF80134124B9C42F3D9C8E70024F9E758
:102270001048FFF7F7F8C6E7744D00208C4D00209A
:10228000F11000087CB00208924D00206C3000086C
:10229000984D0020534B0020524B00207CD000086A
:1022A0007C700108944D00207C100208380000204A
:1022B0009F8601007C300008784D002070470000A8
:1022C000014B1868704700BF544B00200EB400B596
:1022D0009CB01DAB029006906FF000410948079139
:1022E0000491094953F8042B05910068019302A950
:1022F00000F0A8F8029B00221A701CB05DF804EBF5
:1023000003B07047544B00200802FFFF034613F848
:10231000012B002AFBD1181A0138704730B5141E62
:1023200005469BB0184605DA8B232B604FF0FF3033
:102330001BB030BD4FF40273ADF80C3014BF04F184
:10234000FF332346029305934FF6FF7300910491E8
:10235000ADF80E3002461E9B6946284600F072F822
:10236000431CBCBF8B232B60002CE1D0009B0022C0
:102370001A70DDE707B5009313460A460146034885
:102380000068FFF7CBFF03B05DF804FB544B00205F
:102390002DE9F0478E689E4282460C46904699464B
:1023A00037D88A8912F4906F31D0256809696F1A7D
:1023B0006569022305EB450595FBF3F509F101037A
:1023C0003B449D4238BF1D46530530D5294600F099
:1023D00079FB064650B90C23CAF80030A38943F0B4
:1023E0004003A3814FF0FF30BDE8F0873A462169F2
:1023F00000F0F6FAA38923F4906343F08003A381ED
:10240000266165613E44ED1B2660A5604E464E4543
:1024100000D94E4632464146206800F0ECFAA368E7
:102420009B1BA36023681E4426600020DCE72A462D
:1024300000F0A2FB06460028E2D12169504600F0D8
:10244000F3FAC8E72DE9F04F9DB0804603938B89DE
:102450001D060C4616460FD50B696BB9402100F0DE
:1024600031FB2060206128B90C23C8F800304FF000
:10247000FF30C7E0402363610023099320238DF8D8
:10248000293030238DF82A304FF0010B37463D4676
:1024900015F8013B0BB1252B3ED1B7EB060A0BD04B
:1024A0005346324621464046FFF772FF013000F0A6
:1024B000A480099B534409933B78002B00F09D8036
:1024C00000234FF0FF32CDE90523049307938DF8E5
:1024D00053301A932F46052217F8011B4F4800F07E
:1024E0002FFA049BD0B9D90644BF20228DF853207F
:1024F0001A0744BF2B228DF853202A782A2A15D098
:10250000079A2F4600200A25394611F8013B303B37
:10251000092B4DD9B8B10FE02F46B8E73F4A801AD2
:102520000BFA00F0184304903D46D3E7039A111DBF
:1025300012680391002A01DB079204E0524243F043
:102540000203079204933B782E2B0CD17B782A2B25
:1025500033D1039B1A1D1B680392002BB8BF4FF0A9
:10256000FF33023705932E4D39780322284600F0B9
:10257000E7F938B14023401B03FA00F0049B034302
:1025800001370493397827488DF8281006227E1CDD
:1025900000F0D6F9002838D0234B13BB039B073338
:1025A00023F0070308330393099B4B4409936DE71A
:1025B00005FB023201200F46A6E7002301370593F1
:1025C00019460A25384610F8012B303A092A03D952
:1025D000002BC8D00591C6E705FB01210123074662
:1025E000F0E703AB00932246104B04A94046AFF33B
:1025F0000080B0F1FF3F8146D6D1A3895B063FF54D
:1026000036AF09981DB0BDE8F08F03AB00932246AA
:10261000064B04A9404600F081F8EAE77C50030825
:102620008250030886500308000000009123000830
:102630002DE9F04791461F468A680B69DDF8208036
:102640009342B8BF1346C9F8003091F843200646BC
:102650000C4612B10133C9F800302368990642BF15
:10266000D9F800300233C9F80030256815F00605A6
:1026700007D104F1190AE368D9F800209B1AAB428C
:1026800028DC94F843302268003318BF01239206F7
:102690002DD404F1430239463046C047013020D0E2
:1026A0002368E568D9F8002003F00603042B08BF6F
:1026B000AD1AA36822690CBF25EAE575002593428F
:1026C000C4BF9B1AED184FF000091A344D451AD1BA
:1026D000002008E00123524639463046C047013009
:1026E00003D14FF0FF30BDE8F0870135C3E7E118B3
:1026F0005A1C302081F84300224494F8451082F897
:1027000043100233C5E70123224639463046C0470D
:102710000130E6D009F10109D8E700002DE9F043C6
:1027200001F1430C0C46097E85B06E29174606461A
:1027300098460C9A00F0B38022D8632936D00AD884
:10274000002900F0B980582900F0838004F1420587
:1027500084F8421032E0642901D06929F6D120685A
:102760001368050603F104012AD51B681160002BCC
:1027700003DA2D225B4284F843206F480A2239E0B5
:10278000732900F09D8008D86F2920D07029DDD1F1
:10279000236843F02003236003E0752917D07829CC
:1027A000D4D1782384F84530644855E01368191D66
:1027B0001B68116004F1420584F8423001238CE06B
:1027C0001B68116010F0400F18BF1BB2CFE71368F1
:1027D0002568181D1060280601D51B6802E06806F0
:1027E000FBD51B8854486F2914BF0A2208220021F8
:1027F00084F843106568A560002DC0F295802168BB
:1028000021F004012160002B3DD1002D40F08E808D
:102810006546082A0BD12368DB0708D5236962685F
:102820009A42DEBF302305F8013C05F1FF35ACEBE1
:1028300005032361CDF800803B4603AA21463046BC
:10284000FFF7F6FE01304DD14FF0FF3005B0BDE887
:10285000F083394884F84510136821681D1D1B68F2
:1028600015600A060BD5CA0744BF41F0200121605C
:102870001BB9226822F0200222601022B7E74D0621
:1028800048BF9BB2EFE76546B3FBF2F102FB1133A1
:10289000C35C05F8013D0B460029F5D1B9E7136883
:1028A00025686169181D106028061B6801D519602C
:1028B00002E06A06FBD51980002323616546B9E76B
:1028C0001368191D11601D6862680021284600F018
:1028D00037F808B1401B606063682361002384F807
:1028E0004330A7E723692A4639463046C0470130BE
:1028F000AAD023689B0713D4E068039B9842B8BF13
:102900001846A3E701234A4639463046C0470130FE
:102910009AD00135E368039A9B1AAB42F2DCEBE7ED
:10292000002504F11909F5E7002BACD1037884F8F0
:10293000423004F142056CE78D5003089E500308B5
:1029400001F0FF01102A2BDB10F0070F08D010F860
:10295000013B013A8B422DD010F0070F42B3F6D164
:10296000F0B441EA012141EA014122F007047FF07D
:1029700000070023F0E80256083C85EA010586EAD4
:10298000010685FA47F5A3FA87F586FA47F6A5FA10
:1029900087F68EB9EED1F0BC01F0FF0102F007021C
:1029A00032B110F8013B013A83EA010313B1F8D1C7
:1029B0000020704701387047002D06BF35460338A8
:1029C000073815F0010F07D1013015F4807F02BFE1
:1029D000013015F4C03F0130F0BC0138704700BF32
:1029E00010B5431E0A44914200D110BD11F8014BAD
:1029F00003F8014FF7E7884210B501EB020307D84F
:102A0000421E99420AD011F8014B02F8014FF8E733
:102A10008342F5D98118D21AD34200D110BD13F8E0
:102A2000014D01F8014DF7E738B50546002945D0BD
:102A300051F8043C0C1F002BB8BFE41800F0D2F88A
:102A40001F4A1368104633B9636014602846BDE816
:102A5000384000F0C8B8A3420CD9216862189342EC
:102A600004BF1A685B68636004BF52182260046088
:102A7000ECE713465A680AB1A242FAD91968581805
:102A8000A0420BD120680144581882421960DDD160
:102A9000106852685A6001441960D7E702D90C23C4
:102AA0002B60D3E7206821188A4204BF116852685E
:102AB000626004BF091821605C60C7E738BD00BFD1
:102AC000644D002070B5CD1C25F0030508350C2D94
:102AD00038BF0C25002D064601DBA94203D90C2383
:102AE0003360002070BD00F07DF8214A1468214653
:102AF00091B9204C23681BB9304600F063F8206080
:102B00002946304600F05EF8431C24D10C23336084
:102B1000304600F068F8E4E70B685B1B18D40B2B19
:102B20000FD90B60CD50CC18304600F05CF804F1A2
:102B30000B00231D20F00700C31AD3D05A42E250E5
:102B4000D0E78C424B6816BF636013600C46EBE71E
:102B50000C464968CCE7C41C24F00304A04205D00D
:102B6000211A304600F02EF80130CFD02560DBE787
:102B7000644D0020684D0020F8B5074614460E4607
:102B800021B91146BDE8F840FFF79CBF22B9FFF715
:102B90004BFF25462846F8BD00F026F8A0420FD28C
:102BA00021463846FFF78EFF05460028F2D0314611
:102BB0002246FFF715FF31463846FFF735FFE9E7B4
:102BC0003546E7E738B5064C00230546084623603E
:102BD000FEF794F8431C02D1236803B12B6038BD83
:102BE000704D00207047704751F8043C181F002BAF
:102BF000BCBF0B58C01870472E2E2F7379737465A5
:102C00006D2F7372632F73746D333266342D686168
:102C10006C2F73746D3332663478785F68616C5FE3
:102C2000636F727465782E6300000000000000007E
:102C30000102030401020304060708092E2E2F7364
:102C4000797374656D2F7372632F73746D3332668D
:102C5000342D68616C2F73746D3332663478785F0D
:102C600068616C5F7263632E6300000061626F7263
:102C70007428292C2065786974696E672E2E2E00C1
:102C80006173736572745F706172616D282920666B
:102C900061696C65643A2066696C6520222573223F
:102CA0002C206C696E652025640A000053746163F2
:102CB0006B206672616D653A0A0000002052302078
:102CC0003D2020253038580A0000000020523120D5
:102CD0003D2020253038580A0000000020523220C4
:102CE0003D2020253038580A0000000020523320B3
:102CF0003D2020253038580A000000002052313293
:102D0000203D20253038580A00000000204C522079
:102D10003D2020253038580A000000002050432074
:102D20003D2020253038580A000000002050535222
:102D3000203D20253038580A000000004653522F0D
:102D40004641523A0A0000002043465352203D209B
:102D500020253038580A00002048465352203D2094
:102D600020253038580A00002044465352203D2088
:102D700020253038580A00002041465352203D207B
:102D800020253038580A0000204D4D464152203D44
:102D900020253038580A00002042464152203D206C
:102DA00020253038580A00004D6973630A0000007E
:102DB000204C522F4558435F52455455524E3D20AA
:102DC000253038580A0000005B486172644661751E
:102DD0006C745D0A000000005B4275734661756C9F
:102DE000745D0A005B55736167654661756C745D5F
:102DF0000A000000000000000000000001020304BF
:102E0000060708090F0909090909090F0702020243
:102E1000020206020F08080F0101010F0F01010F46
:102E20000101010F0101010F090909090F01010148
:102E30000F08080F0F0909090F08080F0101010108
:102E40000101010F0F09090F0909090F0F01010FF6
:102E50000909090F0004000000000400C40000007C
:102E600000000000010204080402010028282828AC
:102E700028000000080402010204080008045408A5
:102E8000000000007C4454545C0000001212121E2A
:102E900012120C000E09090F0909090E0E1010106C
:102EA00010100E001C12121212121C001E10101C08
:102EB00010101E00080808080F08080F0F1111173E
:102EC00010100F001212121E121212000E0404042F
:102ED00004040E00060901010101010F101214186B
:102EE000141210000F080808080808001515151519
:102EF00015151F001212121212121E000E111111BE
:102F000011110E000808080F09090F003C24642461
:102F10003C0000001212121C12121C001E02021EA3
:102F200010101E000404040404041F000F09090902
:102F300009090900040A1111111111000E151515C6
:102F4000151511001212120C1212120004040404BE
:102F5000040A11004464544C440000007C44000006
:102F6000000000000C10600000000000447C000025
:102F7000000000000001000100000000404040404F
:102F80004040000000010000000000000F12120E7F
:102F9000020C00007C5454546C0000000E10101001
:102FA000100E00007C444444380000007C5454540B
:102FB000440000007C141414040000000C120A02E7
:102FC0000E120C007C1010107C0000000E04040493
:102FD000040C0004604040447C00000012141814EB
:102FE000121000000E04040404040C007C081008F5
:102FF0007C0000007C0810207C0000000E111111E4
:10300000110E00007C141414080000003C246424F9
:103010003C0000007C141414680000005C545454FC
:1030200074000000040A0808081C08007C404040A6
:103030007C0000000C3040300C0000003C40304070
:103040003C00000044281028440000000C106010D0
:103050000C0000004464544C440000000C1060104C
:103060000C00000008000808080808002530326439
:103070003A253032643A2530326400000000000006
:103080000000000000000000000000000000000040
:103090000000000000000000000000000000000030
:1030A0000000000000000000000000000000000020
:1030B0000000000000000000000000000000000010
:103F900000000000000000002000200000000000E1
:103FA0000000000000000000000000000000000011
:103FB0000000000000000000000000000000000001
:103FC00000000000000000000000000000000000F1
:103FD00000000000000000000000000000000000E1
:103FE00000000000000000000000000000000000D1
:103FF00000000000000000000000000000000000C1
:1040000000000000000000000000000000000000B0
:1040100000000000000000000000000000000000A0
:104020000000000000000000000000000000000090
:104030000000000000000000000000000000000080
:104040000000000000000000000000000000000070
:104050000000000000000000000000000000000060
:104060000000000000000000000000000000000050
:104070000000000000000000000000002000000020
:104080000000000000000000000000000000000030
:104090000000000000000000000000000000000020
:1040A0000000000000000000000000000000000010
:1040B000000000000000000000008210494AAA52DF
:1040C000CB5AAA52CB5A8A52C318000000000000F3
:1040D00000000000000000000000200000000000C0
:1040E00000000000000000000000000000000000D0
:1040F00000000000000000000000000000000000C0
:1041000000002421E7392000C318E7392000A2105D
:10411000084220002000E739821000000421863187
:1041200041080000A631C3180000C73945294108DD
:104130008631652900002421A63100002429652943
:10414000E3180000E739E418000000000000000058
:10415000000000000008000800106120022143292F
:10416000643143314331E228201000080000000090
:1041700000002000000000000000000000002000FF
:1041800000000000000000000000200020000000EF
:1041900004212C63CF7B10848E73694A6108610807
:1041A0000842EF7BA2102000000000000000200069
:1041B000000000000000000008422C6324210000E1
:1041C0000000000000002421EB5AAA520000410820
:1041D00000000000000000000000000000000000DF
:1041E00000000000000000000000000000000000CF
:1041F00000000000000000000000000000000000BF
:10420000A631CF7BE7398A52AE73E7392842AE73C5
:10421000E7398E734D6BE7396D6B6529AE734D6B66
:104220000421CB5A6D6BE739CB5AAA52694A45290A
:10423000494A718C08424D6B694ACB5A4429B29461
:1042400004210C63694A6D6B0421200000002000EA
:10425000200000004431D2ACB6CDBAEEFBEE3BFFFD
:10426000FAF63BF7DAEED9EEB9EEB6C5CE836110B9
:10427000000000000000000000000000000020001E
:104280000000000000000000410800004108929476
:10429000B294AA5265290421E7394D6BB294D39C9C
:1042A0008E7338C6042100000000200000000000CA
:1042B000000020004108694AAA520000A210AA5238
:1042C000694AE739410800000000C7392C63000043
:1042D00000002000000000000000000000000000BE
:1042E00000000000000000000000000000000000CE
:1042F00000000000000000000000000000000000BE
:10430000A210CF7B0421E3182C6308428631EB5ABC
:104310006D6B694AAA52C739718C2C63AE73494AD6
:104320002842718C08420C63A6318E7341088210BA
:104330004D6B2000694A45290000AE732008CB5A16
:104340000000108400002842294200000000000004
:1043500000000008EB629DFF1BF7DAF679EE9AF693
:10436000DAF6B9F6DAFE99EEDAF61BF73CF7E32057
:1043700000080000000000000000200020000000F5
:1043800020002000200000000000C31855AD694A3D
:10439000000000006108200000002000610800000B
:1043A0006529EF7B0000610800000000000020008C
:1043B0000000200024218A520000A2108E73A21057
:1043C00082104529EB5A08420000000028420842AA
:1043D00000000000000000000000000000000000DD
:1043E00000000000000000000000000000000000CD
:1043F000000000000000000000000000000020009D
:1044000004218E73084282100842308408420C63F3
:104410004D6B494AE3180C63AE7365296D6B8A5284
:10442000EB5A4D6BC7398E73494A8E73C739AA52FE
:10443000EB5A284228422C638A52AA522000B29496
:10444000A6310C63E7416E6B652900000000000097
:1044500000000000A6397DFF79DEDAEEBAFEDBFE51
:1044600099FE9AFE9AFE79F6FBFEBAF6F7D5000899
:1044700000000000410000000000000000000000FB
:104480000000000000002000410814A508420000C0
:1044900000002000000000002000000000000000DC
:1044A0008E736D6B00002000000000000000000013
:1044B000200000002C63610820000000CB5AC7399F
:1044C0004108694A61088A52E739000000008E738A
:1044D00020000000000000000000000000000000BC
:1044E00000000000000000000000000000000000CC
:1044F00000000000000000000000000000000000BC
:1045000000006529C73982104529A6312000E3182B
:10451000C7394108A210C73961084108242108425F
:1045200000000000494AA2100000C73945292000B8
:10453000C7394529200024210842000000006529D0
:1045400041080000E84104210000000000000000D4
:1045500000000000000879DEFBF6FBF67AFE9AFE0A
:1045600059F6BAFE99FEDAFE58E65DFF519C21101D
:1045700000000000000000002000000000002000FB
:104580002000200020000000C739718C00002000AE
:1045900000002000000000002000000000002000BB
:1045A000821034A561080000000000002000000017
:1045B0000000A210EB5A0000200004210000284255
:1045C000EB5A494A0C6300002C6361082000494AF9
:1045D0002421200000000000000000000000000076
:1045E00000000000000000000000000000000000CB
:1045F000000000000000000000000000200000009B
:104600004108000000000000000000000000000061
:10461000000000000000000000000000000020007A
:104620000000610800000000200000000000000001
:10463000200000000000200000000000000000003A
:10464000000000000000000000000000000000006A
:104650000000200820084C735CFF79E6B9F6BAFE2A
:10466000DAFE99F6BAF6BAF6DAF6FBF6043100008D
:1046700000000000000020002000000000002000DA
:10468000000000004108000030842842000041087A
:10469000200000000000A210000000006108410896
:1046A00000003084A631000000000000000020005F
:1046B0000000E318AA520000C739EB5AE73900009E
:1046C00020002000494A694A4529694A00000842F9
:1046D000C7390000200000000000000000000000BA
:1046E00000000000000000000000000000000000CA
:1046F00000000000000000000000000000000000BA
:104700000000000000000000000000000000200089
:104710002000000000000000200000000000200039
:104720000000000000002000000020000000000049
:1047300000000000000020000000200041082000D0
:104740000000000000000000200000000000200029
:10475000000000000000000854B59DFF99E6DAEE65
:10476000B9EEB9EEB9EEDAEE7CFF2C73200800004A
:104770002000000000000000000000000000000019
:104780000000000020000000929465290000718C58
:10479000F39C0000494A59CE00006108BAD6863120
:1047A0000000EF7B694A00002000000000000000CC
:1047B0000000A210CB5A0000284228424D6BE3189B
:1047C000000045292C63A210A210CB5A0000494AD0
:1047D0008631000000000000000000000000000022
:1047E00000000000000000000000000000000000C9
:1047F00000000000000000000000000000000000B9
:104800000000000000000000200000000000000088
:104810002000000020000000000000000000200038
:10482000410800004108C31800000000A210410820
:10483000000000004108C318200000002000000014
:1048400000008210A2100000000000000000000024
:1048500000000000000000082010D3A45BF75BF705
:104860005BF73BF75CFF1BEF0B6B000800000000E1
:104870000000000000000000000000000000000038
:104880000000000020000000308408422000821058
:10489000C31800002000E31800000000E3184108DE
:1048A0000000718CA6310000200000000000000014
:1048B000000000000C632000C318AE7324214D6B70
:1048C000C73982104D6B00004529694A00006D6BA5
:1048D0002000000000002000000000000000000098
:1048E00000000000000000000000000000000000C8
:1048F00000000000000000000000000000000000B8
:1049000000000000000000000000000000000000A7
:10491000000000000000000000000000000014A5DE
:10492000AE732421F7BD96B575AD821075ADFBDE73
:104930006529A63118C655AD14A52421BAD6410063
:10494000EF7B79CE79CE38C604210000000000004C
:10495000000000000000000000000008A541EE8BF0
:1049600094BD33B52B73E220200800000000000046
:104970000000000000000000000000000000000037
:104980000000000000002000694A108400000000C0
:1049900000000000200000000000000000000000F7
:1049A000200055AD4108200000000000000000007C
:1049B00020000000A631AA52000086316D6B694AC2
:1049C0002842200024212C632C6341086529AA5227
:1049D000410800000000000000000000000000008E
:1049E00000000000000000000000000000000000C7
:1049F00000000000000000000000000000000000B7
:104A000000000000000000000000000000000000A6
:104A1000000000000000000000000000000096B54B
:104A20003084A6314D6B694A5DEFCF7B000059CED3
:104A3000CF7BCB5A5DEF4D6BC73924213CE765290D
:104A4000FFFF694A00000C63C3180000000000006B
:104A5000000000000000000000080000C1284F9C7A
:104A600074C574C52B73000800080008000000001E
:104A70000000000000000000000000000000000036
:104A80000000410800000000610834A565292000ED
:104A900020000000000000000000000041080000AD
:104AA000518C0C632000000000002000000020005A
:104AB000000000000000AA528A5200004108C739D5
:104AC000C73900002000410800006529CF7B0000A5
:104AD0000000000000002000000020000000000096
:104AE00000000000000000000000000000000000C6
:104AF00000000000000000000000000000000000B6
:104B00000000000000000000000000000000200085
:104B1000000000000000000000004108C318DBDEB8
:104B2000AE73EF7BDBDE2C63BEF7CF7B0000B6B548
:104B300030840000EB5A96B5F7BD0421FFFF6108F1
:104B40009294DBDEF7BD494A00000000000020001F
:104B500000000000000000000000032938E65CFFB0
:104B60001BFF1BFF5CFFB2AC000800080000000048
:104B70000000000000000000000000002000000015
:104B8000000000002000200000004529B6B5C7390C
:104B90000000000000002000000020000000CF7B8B
:104BA000D39C00000000410800000000000000004D
:104BB0000000000000000000694A2C63042120006E
:104BC000000000000000E318CB5A0C630000200036
:104BD000000000004108000020000000000000006C
:104BE00000000000000000000000000000000000C5
:104BF00000000000000000000000000000000000B5
:104C000000000000000000000000000000000000A4
:104C1000000000000000000041080421F7BDDBDEB9
:104C20006D6B452918C614A575AD6108F39CBEF7D8
:104C3000DBDEE73934A575ADD39C8210F7BD610882
:104C40000000C3188A52DFFF8631000020000000F8
:104C500000000000200000000000AE7B1CFF9AFE58
:104C60009AFE79F6BAF61CFF043100080000000035
:104C70000000000000000000000000000000000034
:104C8000200000000000000000000000E318B294C3
:104C9000718C28420421C3182421CB5A75AD8E7320
:104CA0000000000000000000000000000000000004
:104CB00020000000200000000000C3188A52EB5AB8
:104CC000EB5AAA52EB5A694A45290000000000003D
:104CD00000000000000000000000000000000000D4
:104CE00000000000000000000000000000000000C4
:104CF00000000000000000000000000000000000B4
:104D00000000000000000000000000000000200083
:104D10000000000000000000000041084108000001
:104D20004108000000002421000000006108718C8F
:104D30004D6B0000A210C3180000C31835A5400039
:104D4000518CD7BDD39CDBDEC318000000000000EF
:104D500000000000000000000000EF831CFF38EEA0
:104D6000BAFEBAFE79EE1CFF6541000800000000A3
:104D70000000000000000000000000002000000013
:104D800000000000000000002000410800000000BA
:104D9000E7398E7310843084518C0C63C318000083
:104DA00000000000000000002000000020000000C3
:104DB00000002000000000002000000000000000B3
:104DC000200061080000000000000000000000005A
:104DD0000000000000000000200020000000000093
:104DE00000000000000000000000000000000000C3
:104DF00000000000000000000000000000000000B3
:104E000000000000000000000000000000000000A2
:104E10000000000020000000000020002000000032
:104E20000000200000000000000000000000200042
:104E300020000000000000000000C3185184210081
:104E40006108494A8A52000000000000000020006A
:104E5000000020000000000000004529FBFE3CFF90
:104E6000DAF6DAF69DFF34B5000800000000000015
:104E70000000000000000000000000000000000032
:104E800020000000000020000000000020000000C2
:104E90000000000020002000000000000000410889
:104EA00000000000000020000000200000000000C2
:104EB0002000000000000000000000004108000089
:104EC0000000200000000000200000000000200082
:104ED00000000000000000000000000000000000D2
:104EE00000000000000000000000000000000000C2
:104EF00000000000000000000000000000000000B2
:104F00000000000000000000000000002000000081
:104F10000000000000000000000000000000000091
:104F20000000200000000000410800000000000018
:104F30000000000041080000000000000000000028
:104F400020000000000041080000000000000000F8
:104F5000000000000000000020000000E64995BDB0
:104F6000DAE699DEB19CC2180000200000000000C3
:104F70000000000000000000000000000000000031
:104F800000000000200000000000200000002000C1
:104F900000004108000000002000000000000000A8
:104FA00000000000000000000000000000002000E1
:104FB00000000000000000000000000000000000F1
:104FC0004108000000002000000000000000000078
:104FD00000000000000000000000000000000000D1
:104FE00000000000000000000000000000000000C1
:104FF00000000000000000000000000000000000B1
:1050000000000000000000000000000000000000A0
:105010000000000000000000000000000000000090
:105020000000000020002000000020000000200000
:105030000000000000000000000000000000200050
:105040000000000000000000210800000000000037
:105050000000000020000000000000000000000030
:10506000A1188110000000002000000000000000D6
:105070000000000000000000000000000000000030
:105080000000000000000000000000000000000020
:105090000000000000000000000000000000000010
:1050A0000000000000000000000000000000000000
:105B40000000000000000000000000002000000035
:105B50000000000000000000200020000000000005
:105B60000000200000000000000000000000000015
:105B70000000000000000000000000000000000025
:105B80000000000000000000000000000000000015
:105B90000000000000000000000000000000000005
:105BA00000000000000000000000000000000000F5
:105BB00000000000000000000000000000000000E5
:105BC00000000000000000000000000000000000D5
:105BD00000000000000000000000000000000000C5
:105BE00000000000000000000000000000000000B5
:105BF00000000000000000000000000000000000A5
:105C00000000000000000000000000000000000094
:105C10000000000000000000000000000000000084
:105C20000000000000000000000000000000000074
:105C30000000000000000000000000000000000064
:105C40000000000000000000000000000000000054
:105C50000000000000000000000000000000000044
:105C60000000000000000000000000000000000034
:105C70000000000000000000000000000000000024
:105C80000000000000000000000000000000000014
:105C90000000000000000000000000000000000004
:105CA00000000000000000000000000000000000F4
:105CB00000000000000000000000000000000000E4
:105CC00000000000000000000000000000000000D4
:105CD00000000000000000000000000000000000C4
:105CE00000000000000000000000000000000000B4
:105CF00000000000000000000000000000000000A4
:105D00000000000000000000000000000000000093
:105D10000000000000000000000000000000000083
:105D20000000000000000000000000000000000073
:105D30000000000000000000000000000000000063
:105D40000000000000000000000000000000000053
:105D50000000000000000000000020000000000023
:105D60000000000000000000000000000000000033
:105D70000000000000000000000000000000000023
:105D80000000000000000000000000000000000013
:105D90000000000000000000000000000000000003
:105DA00000000000000000000000000000000000F3
:105DB00000000000000000000000000000000000E3
:105DC00000000000000000000000000000000000D3
:105DD00000000000000000000000000000000000C3
:105DE00000000000000000000000000000000000B3
:105DF00000000000000000000000000000000000A3
:105E00000000000000000000000000000000000092
:105E10000000000000000000000000000000000082
:105E20000000000000000000000000000000000072
:105E30000000000000000000000000000000000062
:105E40000000000000000000000000000000000052
:105E50000000000000000000000000000000000042
:105E60000000000000000000000000000000000032
:105E70000000000000000000000000000000000022
:105E80000000000000000000000000000000000012
:105E90000000000000000000000000000000000002
:105EA00000000000000000000000000000000000F2
:105EB00000000000000000000000000000000000E2
:105EC00000000000000000000000000000000000D2
:105ED00000000000000000000000000000000000C2
:105EE00000000000000000000000000000000000B2
:105EF00000000000000000000000000000000000A2
:105F00000000000000000000000000000000000091
:105F10000000000000000000000000000000000081
:105F20000000000000000000000000000000000071
:105F30000000000000000000000000000000000061
:105F40000000000000000000000000000000000051
:105F50000000000000000000000020000000000021
:105F60000000000000000000000000000000000031
:105F70000000000000000000000000000000000021
:105F80000000000000000000000000000000000011
:105F9000000020004108410820000000000000002F
:105FA00000000000000000000000000000000000F1
:105FB000000000000000000000000000000082104F
:105FC00004210421821020000000000000000000D5
:105FD00000000000000000000000000000000000C1
:105FE00000000000000000000000000000000000B1
:105FF00000000000000000000000000000000000A1
:106000000000000000000000000000000000000090
:106010000000000000000000000000000000000080
:106020000000000000000000000000000000000070
:106030000000000000000000000000000000000060
:106040000000000000000000000000000000000050
:10605000000000000000A210C739AA524D6BAE7BB1
:10606000EF83CF7B8E732C6B494A86310000000092
:106070000000000000000000000000000000000020
:106080000000000000000000000000000000A2105E
:106090002C63718C518C3084718C3084694A494AEC
:1060A000CF7BB6B5452900000000000000000000CD
:1060B00000000000000020000000E739EB5A8A527F
:1060C00008422842694ACB5A494A000000000000B1
:1060D0000000200000002000000000000000000080
:1060E00000000000000000000000000000000000B0
:1060F00000000000000000000000000000000000A0
:10610000000000008210E7398A5204210842CB5A6D
:1061100000004529CB5A2421C318AA52C7392000B0
:10612000E318C318A210C31800008210EB5AA6315E
:106130000421C739AA52A631AA528631E739AB5297
:106140002521A310AB52C739000000000000000059
:10615000200800082852B9EE3BFF1BFF1BFF3BFF46
:10616000FAFE3BFF1AFF3BFF1BFF1BFFD6D581202A
:1061700000000000000000002000000000002000DF
:10618000000000000000000020000000084234A5CC
:106190002C63A2102000200000006529AE736D6BF7
:1061A000E73996B54108000000000000000000003B
:1061B00000004108000061082C63284241080000EB
:1061C0000000000000008210A6316D6BE318000093
:1061D0004108000000000000000000000000000076
:1061E00000000000000000000000000000000000AF
:1061F0000000000000000000000000000000410856
:1062000000000000000008421084AA52EB5A494ADC
:106210004D6BAE730421652930848631EF7B4108D4
:106220008E736108EF7BCF7B2C6330848631E73936
:106230008210AA52CF7BA210EF7BA210C318318428
:106240004108AF7345292D6BA731000000002000E5
:106250000000000089625CFF99EE99EE78EEDAFEAC
:10626000DAFE78EEB9FE99F699EEDAF6BAEE811812
:1062700000000000000000000000000020000000FE
:1062800000002000000000000000694A55AD8210A7
:1062900000000000000000000000000000000000FE
:1062A000AA528E7300004108000000000000200088
:1062B0000000000061080C6345290000E7390C6309
:1062C000AA520C638631000020008210AE732000B9
:1062D0000000410800000000000000000000000075
:1062E00000000000000000000000000000000000AE
:1062F000000000000000000000000000000000009E
:106300000000200004216D6B0000C318EB5A2C63C1
:106310008E732842EB5A694AC739EF7BEB5A4529FD
:106320008A524108494ACF7B0842A631AA52694A9B
:10633000494A494A000020004D6B000082100C635E
:1063400000001084000029422942000041000000A2
:10635000000040104431BAEEFAF6DAF6DAFEB9F689
:1063600078EEFAFEB9F699F6FAFEFBF6B6CD00081D
:1063700000000000000000002000200000000000DD
:106380000000000020000000610834A56108000042
:106390000000000000002000200000004108000074
:1063A0008A5210840000000000000000200000005D
:1063B000000000002842E73900008210AE730000A0
:1063C000200061088A520C6300000000C3184D6B66
:1063D000000000002000000000000000000000009D
:1063E00000000000000000000000000000000000AD
:1063F000000000000000000000000000000000009D
:106400004108000065292C63EB5A0421694AAE73E8
:10641000242124214D6B8A52E7392C63694A2C636D
:10642000CB5A2421494A518C0000A210CB5A8E73BA
:1064300028422C63AA520000EF7B28422000518C96
:1064400025218A520C634D6BE41800000000000007
:1064500040080000000875BD1BF779E6B9EEB9EEFB
:10646000DAF6DAF6B9F6DAF699E63CFF4C73000094
:1064700020080000000000000000000000000000F4
:1064800000002000000000000C638E73000000007C
:106490000000200000000000000000000000410893
:1064A000000034A5A2100000200000000000000041
:1064B00000002000EB5A200000000000A6310C6311
:1064C000A6316D6B04214529CB5A00000000CB5A40
:1064D0006108000020002000000000000000000013
:1064E00000000000000000000000000000000000AC
:1064F000000000000000000000000000000000009C
:106500000000000000006108C3180000A210A210E3
:1065100000008210A21020000000042100002000D2
:106520002421C3180000200000006108C31861087E
:106530000000E31861080000200041080000410845
:1065400020000000C31841080000000000002000E7
:10655000000000000008E7495CFFFBF6DAF6FBF6F6
:10656000B9EE99EE3BFF78E63BF717D681180000AD
:1065700000000000000000002108000000002000D2
:106580000000000061080000518C86312000A63117
:10659000E7390000E3188A5200002000CB5A610856
:1065A0000000518C084200002000000000000000A4
:1065B0000000E318AA520000A21028422000E318AD
:1065C0002842E318EB5AC3188A5224212000494A72
:1065D00086310000000000002000000000000000E4
:1065E00000000000000000000000000000000000AB
:1065F000000000000000000000000000000020007B
:10660000000000000000000000000000000000008A
:10661000000000000000000000000000000000007A
:10662000000000000000000000000000200000004A
:1066300020002000000000002000000000000000FA
:106640000000410800002100000041080000200077
:1066500000000000200800080B6B3CFFFBF6BAEEC0
:10666000B9EEFAF6DAEE3BF7DAEE853900002100F2
:106670000000010000000000000000000000000019
:106680000000000041080000518CA6310000108479
:10669000718C0000E739B6B500002000F7BDA631C7
:1066A0000000CF7B694A00000000000000002000CD
:1066B0000000E3188A5200002842694AAA522000CA
:1066C00041080000CB5A494AE3188A520000A6311B
:1066D000E73900000000000000000000000000009A
:1066E00000000000000000000000000000000000AA
:1066F000000000000000000000000000000000009A
:106700002000000020002000000020000000000009
:106710000000000000000000000000002000000059
:106720004529C7396529EB5A8210000065292C6379
:106730008631042165298631E739AA52000000001C
:10674000A631694A8A52863100000000000000002C
:1067500000000000000000000008AA6217DEDAF660
:106760001BFFFAF6FAF674BD0329000000000000D2
:1067700000000000000000000000000800002000F1
:106780000000200000000000EF7B694A00000000CC
:1067900000000000000000000000000000000000F9
:1067A0000000D39C652900000000000000000000EC
:1067B000000082102C630000A6318A528A522842BF
:1067C0002000A6310C630000E318CB5A0000CB5A1E
:1067D0002421000000000000000000000000000074
:1067E00000000000000000000000000000000000A9
:1067F0000000000000000000000000000000000099
:106800000000000000000000000000000000000088
:106810000000000000000000000000000000200058
:106820008631BEF7308496B5B6B5A631BEF7B294C0
:10683000FBDED7BD494ADFFF4D6B9AD6718C2C63C6
:10684000FBDEB294B7BD5DEF000000000000000069
:106850002000000000000000000000000010686A36
:10686000B1AC2F9C23390008000800000000000094
:1068700020000000000000000000000000000000F8
:106880000000000000002000452914A500002000A1
:10689000000000000000200000000000410800008F
:1068A000042134A5200000000000000020000000AA
:1068B00000000000EB5A04210000AE73E739CB5A08
:1068C000E73920004D6BE3180842E73900008E736A
:1068D0002000000020000000000000000000000078
:1068E00000000000000000000000000000000000A8
:1068F0000000000000000000000000000000000098
:106900000000000000000000000000000000000087
:106910000000000000000000000000000000200057
:1069200000009AD61084518C2C63518CF7BD000066
:106930004D6B38C600005DEF4D6B14A5484255AD58
:1069400075AD0000CA5A1CE70000000000000000FE
:10695000000000000000000000000000CA7A38E6D5
:1069600079EE79EEB5CD2339200800000000000053
:1069700000000000000000000000000000004108CE
:106980000000000041080000200030848E730000E9
:106990000000000041080000000020000000410845
:1069A000B6B58631000020000000000000000000A5
:1069B00000000000E3184D6B000082100C63EB5ADE
:1069C000AA522000A210EB5A694A2000AA5286312E
:1069D00000000000000000000000000000000000B7
:1069E00000000000000000000000000000000000A7
:1069F0000000000000000000000000000000000097
:106A00000000000000000000000000000000000086
:106A10000000000000000000000000002000000056
:106A200020001CE755ADAE73A631EB5ABEF7084205
:106A3000F7BDF7BD0000BEF7B294CF7B65290421F6
:106A4000BAD6D6BD38CEDBDE000020000000000044
:106A50000000000020000000000008423CFFDAFEB9
:106A6000DAFEDAF65CFFF6CD201000000000000030
:106A70000000000000000000000000000000000016
:106A8000000000000000000000002000929430840C
:106A9000821000000000000000000000C73955AD62
:106AA000694A4108200000000000000020000000AA
:106AB000000000000000A6314D6B410800004108B5
:106AC000A21020000000000020008A52694A000045
:106AD00000000000000000000000000000000000B6
:106AE00000000000000000000000000000000000A6
:106AF0000000000000000000000000000000000096
:106B00000000000000000000000000000000000085
:106B1000000000000000000000000000000061080C
:106B20000000084214A5D39CC7390000308434A566
:106B300055AD18C600002C63B29492942421A6315E
:106B4000BEF7C218EB5A3DEF000000000000200025
:106B50000000000000000000000010841BFF99F6F8
:106B600099EEDAF6B9EE5CFFA641000000000000E5
:106B70000000000000000000000000000000000015
:106B80000000000000000000000000000000CB5AE0
:106B900014A5CF7B2C63AA526D6BB294929486316C
:106BA00000000000000000002000000000000000C5
:106BB000000000000000000024214D6B8A522421B7
:106BC000821061082421694A4D6BC73941080000D1
:106BD0000000000000002000000000000000000095
:106BE00000000000000000000000000000000000A5
:106BF0000000000000000000000000000000000095
:106C00000000000000000000000000000000000084
:106C10000000000000000000000000000000000074
:106C20000000200000000000200000000000200004
:106C30000C6359CE00000000000000000000A2100C
:106C400034A576B518C696B50000000000002000F7
:106C5000000000000000000000004D6B5CFF58E6E3
:106C6000DAF699EEBAEEBAEEE32800000000000072
:106C700000000000000000000000000000002000F4
:106C8000000000002000000000006108000000007B
:106C90000000A631694ACB5A694AC31800000000B7
:106CA00000000000000000000000000000000000E4
:106CB000410800004108000000000000452928426A
:106CC0008A528A52AA528631000020000000000039
:106CD000000041080000000000000000000000006B
:106CE00000000000000000000000000000000000A4
:106CF0000000000000000000000000000000000094
:106D00000000000000000000000000000000000083
:106D10000000000000000000000000000000000073
:106D20000000000000000000000000000000000063
:106D30008210042100004108000020000000000033
:106D40004108210841080000000000000000000088
:106D500000000000000020000000A21895C59DFF63
:106D60001BF73CFF5CFFEF8B0008000000000000F9
:106D70000000000000000000000000000000000013
:106D8000200000000000000041080000000020007A
:106D900000000000000000000000000000000000F3
:106DA00000000000000020000000000000000000C3
:106DB0000000000000000000000020002000000093
:106DC0002000000000000000200000002000000063
:106DD00000000000000000000000000000000000B3
:106DE00000000000000000000000000000000000A3
:106DF0000000000000000000000000000000000093
:106E00000000000000000000000000000000000082
:106E10000000000000000000000000000000000072
:106E20000000000020000000000000000000000042
:106E30002000000000000000200000000000000012
:106E40000000000000000000000000002000000022
:106E500000000000000000000000000061104D7301
:106E600013ADD2A4084A000000000000000000009A
:106E70000000000000000000000000000000000012
:106E800000000000000000000000200020000000C2
:106E90000000000000002000000000000000410889
:106EA00000000000200000000000000000000000C2
:106EB00000000000000000002000000000000000B2
:106EC0000000410820000000200000000000000039
:106ED0002000000000000000000000000000000092
:106EE00000000000000000000000000000000000A2
:106EF0000000000000000000000000000000000092
:106F00000000000000000000000000000000000081
:106F10000000000000000000000000000000000071
:106F200000006108000020000000200000000000B8
:106F300020000000000041080000000000000000E8
:106F400041080000210800000000000000000000CF
:106F500000000000000000002000000000002000F1
:106F60000000000000000000000000000000000021
:106F70000000000000000000000000000000000011
:106F800000000000200000000000000000000000E1
:106F900020000000000000000000000000000000D1
:106FA00000000000000020000000000000000000C1
:106FB0000000000000000000000000000000410888
:106FC00000000000000020000000000000000000A1
:106FD0000000200000002000000000000000000071
:106FE00000000000000000000000000000000000A1
:106FF0000000000000000000000000000000000091
:107000000000000000000000000000000000000080
:107010000000000000000000000000000000000070
:107020000000000000000000200000000000000040
:107030000000000020000000000000000000000030
:107040000000000000000000200800000000000018
:107050000000000000000000000000002000000010
:1070600000000000200800000000000000000000F8
:107070000000000000000000000000000000000010
:107080000000000000000000000000000000000000
:1070900000000000000000000000000000000000F0
:1070A00000000000000000000000000000000000E0
:1078A00000000000000000002000000000000000B8
:1078B00000000000000000000000000000000000C8
:1078C00000000000000000000000000000000000B8
:1078D00000000000000000000000000000000000A8
:1078E0000000000000000000000000000000000098
:1078F0000000000000000000000000000000000088
:107900000000200000000000000000000000000057
:107910000000000000002000000020000000200007
:107920000000000000000000000000000000000057
:107930000000000000002000000000000000000027
:1079400000000000200000002000000000002000D7
:1079500000002000200000000000000000000000E7
:107960000000000000000000000000000000000017
:1079700000000000000000002008000000000000DF
:1079800000000000000000000000000000000000F7
:1079900000000000000000000000000000002000C7
:1079A00000000000000000000000000000000000D7
:1079B00000002000000000000000000000000000A7
:1079C0000000200000000000000000000000000097
:1079D00000000000000000000000000000000000A7
:1079E0000000000000000000000000000000000097
:1079F000000000000000000000000000000041083E
:107A00000000000020000000000000000000000056
:107A10000000000000000000000000000000000066
:107A200020002000000000002000000020000000D6
:107A300020002000000000002000000000002000C6
:107A40000000000000000000000020000000000016
:107A50000000000000000000000000002000000006
:107A600000000000000000000000200000000000F6
:107A700000000000210800000000000000000000DD
:107A800000000000000000000000000000000000F6
:107A900000000000000000002000000000000000C6
:107AA0000000000000002000000000002000000096
:107AB0000000000000000000000020000000200086
:107AC0000000000000000000000020000000000096
:107AD00000000000000000000000000000000000A6
:107AE0000000000000000000000000000000000096
:107AF0000000000000000000000000000000000086
:107B00000000000000000000000000000000000075
:107B10000000000020000000000000000000000045
:107B20000000000000000000000020000000000035
:107B300000000000000041080000000020000000DC
:107B40000000000000000000000000002000000015
:107B50000000000000000000000000000000000025
:107B600000000000000000000000000020002000D5
:107B700000000000000000000000010800000000FC
:107B800000000000000000000000000000000000F5
:107B900000000000200000000000000000000000C5
:107BA00000002000000000000000000000000000B5
:107BB00000000000000000000000000000000000C5
:107BC00000000000000000000000000000000000B5
:107BD00000000000000000000000000000000000A5
:107BE0000000000000000000000000000000000095
:107BF000000000000000000000000000000041083C
:107C00000000000000000000000000000000200054
:107C100000000000000000002000000000004108FB
:107C200000000000000041080000000000002000EB
